{
  "_format": "hh3-artifact-1",
  "contractName": "TruvoCertificate",
  "sourceName": "contracts/TruvoCertificate.sol",
  "abi": [
    {
      "inputs": [],
      "stateMutability": "nonpayable",
      "type": "constructor"
    },
    {
      "inputs": [],
      "name": "AccessControlBadConfirmation",
      "type": "error"
    },
    {
      "inputs": [
        {
          "internalType": "address",
          "name": "account",
          "type": "address"
        },
        {
          "internalType": "bytes32",
          "name": "neededRole",
          "type": "bytes32"
        }
      ],
      "name": "AccessControlUnauthorizedAccount",
      "type": "error"
    },
    {
      "inputs": [
        {
          "internalType": "address",
          "name": "sender",
          "type": "address"
        },
        {
          "internalType": "uint256",
          "name": "tokenId",
          "type": "uint256"
        },
        {
          "internalType": "address",
          "name": "owner",
          "type": "address"
        }
      ],
      "name": "ERC721IncorrectOwner",
      "type": "error"
    },
    {
      "inputs": [
        {
          "internalType": "address",
          "name": "operator",
          "type": "address"
        },
        {
          "internalType": "uint256",
          "name": "tokenId",
          "type": "uint256"
        }
      ],
      "name": "ERC721InsufficientApproval",
      "type": "error"
    },
    {
      "inputs": [
        {
          "internalType": "address",
          "name": "approver",
          "type": "address"
        }
      ],
      "name": "ERC721InvalidApprover",
      "type": "error"
    },
    {
      "inputs": [
        {
          "internalType": "address",
          "name": "operator",
          "type": "address"
        }
      ],
      "name": "ERC721InvalidOperator",
      "type": "error"
    },
    {
      "inputs": [
        {
          "internalType": "address",
          "name": "owner",
          "type": "address"
        }
      ],
      "name": "ERC721InvalidOwner",
      "type": "error"
    },
    {
      "inputs": [
        {
          "internalType": "address",
          "name": "receiver",
          "type": "address"
        }
      ],
      "name": "ERC721InvalidReceiver",
      "type": "error"
    },
    {
      "inputs": [
        {
          "internalType": "address",
          "name": "sender",
          "type": "address"
        }
      ],
      "name": "ERC721InvalidSender",
      "type": "error"
    },
    {
      "inputs": [
        {
          "internalType": "uint256",
          "name": "tokenId",
          "type": "uint256"
        }
      ],
      "name": "ERC721NonexistentToken",
      "type": "error"
    },
    {
      "anonymous": false,
      "inputs": [
        {
          "indexed": true,
          "internalType": "address",
          "name": "owner",
          "type": "address"
        },
        {
          "indexed": true,
          "internalType": "address",
          "name": "approved",
          "type": "address"
        },
        {
          "indexed": true,
          "internalType": "uint256",
          "name": "tokenId",
          "type": "uint256"
        }
      ],
      "name": "Approval",
      "type": "event"
    },
    {
      "anonymous": false,
      "inputs": [
        {
          "indexed": true,
          "internalType": "address",
          "name": "owner",
          "type": "address"
        },
        {
          "indexed": true,
          "internalType": "address",
          "name": "operator",
          "type": "address"
        },
        {
          "indexed": false,
          "internalType": "bool",
          "name": "approved",
          "type": "bool"
        }
      ],
      "name": "ApprovalForAll",
      "type": "event"
    },
    {
      "anonymous": false,
      "inputs": [
        {
          "indexed": true,
          "internalType": "uint256",
          "name": "tokenId",
          "type": "uint256"
        },
        {
          "indexed": true,
          "internalType": "address",
          "name": "learner",
          "type": "address"
        },
        {
          "indexed": false,
          "internalType": "string",
          "name": "ipfsCid",
          "type": "string"
        },
        {
          "indexed": false,
          "internalType": "string",
          "name": "skillName",
          "type": "string"
        },
        {
          "indexed": false,
          "internalType": "uint256",
          "name": "issuedAt",
          "type": "uint256"
        }
      ],
      "name": "CertificateIssued",
      "type": "event"
    },
    {
      "anonymous": false,
      "inputs": [
        {
          "indexed": true,
          "internalType": "uint256",
          "name": "tokenId",
          "type": "uint256"
        },
        {
          "indexed": true,
          "internalType": "address",
          "name": "revokedBy",
          "type": "address"
        },
        {
          "indexed": false,
          "internalType": "uint256",
          "name": "revokedAt",
          "type": "uint256"
        }
      ],
      "name": "CertificateRevoked",
      "type": "event"
    },
    {
      "anonymous": false,
      "inputs": [
        {
          "indexed": true,
          "internalType": "bytes32",
          "name": "role",
          "type": "bytes32"
        },
        {
          "indexed": true,
          "internalType": "bytes32",
          "name": "previousAdminRole",
          "type": "bytes32"
        },
        {
          "indexed": true,
          "internalType": "bytes32",
          "name": "newAdminRole",
          "type": "bytes32"
        }
      ],
      "name": "RoleAdminChanged",
      "type": "event"
    },
    {
      "anonymous": false,
      "inputs": [
        {
          "indexed": true,
          "internalType": "bytes32",
          "name": "role",
          "type": "bytes32"
        },
        {
          "indexed": true,
          "internalType": "address",
          "name": "account",
          "type": "address"
        },
        {
          "indexed": true,
          "internalType": "address",
          "name": "sender",
          "type": "address"
        }
      ],
      "name": "RoleGranted",
      "type": "event"
    },
    {
      "anonymous": false,
      "inputs": [
        {
          "indexed": true,
          "internalType": "bytes32",
          "name": "role",
          "type": "bytes32"
        },
        {
          "indexed": true,
          "internalType": "address",
          "name": "account",
          "type": "address"
        },
        {
          "indexed": true,
          "internalType": "address",
          "name": "sender",
          "type": "address"
        }
      ],
      "name": "RoleRevoked",
      "type": "event"
    },
    {
      "anonymous": false,
      "inputs": [
        {
          "indexed": true,
          "internalType": "address",
          "name": "from",
          "type": "address"
        },
        {
          "indexed": true,
          "internalType": "address",
          "name": "to",
          "type": "address"
        },
        {
          "indexed": true,
          "internalType": "uint256",
          "name": "tokenId",
          "type": "uint256"
        }
      ],
      "name": "Transfer",
      "type": "event"
    },
    {
      "inputs": [],
      "name": "DEFAULT_ADMIN_ROLE",
      "outputs": [
        {
          "internalType": "bytes32",
          "name": "",
          "type": "bytes32"
        }
      ],
      "stateMutability": "view",
      "type": "function"
    },
    {
      "inputs": [],
      "name": "ISSUER_ROLE",
      "outputs": [
        {
          "internalType": "bytes32",
          "name": "",
          "type": "bytes32"
        }
      ],
      "stateMutability": "view",
      "type": "function"
    },
    {
      "inputs": [
        {
          "internalType": "address",
          "name": "issuer",
          "type": "address"
        }
      ],
      "name": "addIssuer",
      "outputs": [],
      "stateMutability": "nonpayable",
      "type": "function"
    },
    {
      "inputs": [
        {
          "internalType": "address",
          "name": "to",
          "type": "address"
        },
        {
          "internalType": "uint256",
          "name": "tokenId",
          "type": "uint256"
        }
      ],
      "name": "approve",
      "outputs": [],
      "stateMutability": "nonpayable",
      "type": "function"
    },
    {
      "inputs": [
        {
          "internalType": "address",
          "name": "owner",
          "type": "address"
        }
      ],
      "name": "balanceOf",
      "outputs": [
        {
          "internalType": "uint256",
          "name": "",
          "type": "uint256"
        }
      ],
      "stateMutability": "view",
      "type": "function"
    },
    {
      "inputs": [
        {
          "internalType": "uint256",
          "name": "tokenId",
          "type": "uint256"
        }
      ],
      "name": "getApproved",
      "outputs": [
        {
          "internalType": "address",
          "name": "",
          "type": "address"
        }
      ],
      "stateMutability": "view",
      "type": "function"
    },
    {
      "inputs": [
        {
          "internalType": "address",
          "name": "learner",
          "type": "address"
        }
      ],
      "name": "getLearnerCertificates",
      "outputs": [
        {
          "internalType": "uint256[]",
          "name": "",
          "type": "uint256[]"
        }
      ],
      "stateMutability": "view",
      "type": "function"
    },
    {
      "inputs": [
        {
          "internalType": "bytes32",
          "name": "role",
          "type": "bytes32"
        }
      ],
      "name": "getRoleAdmin",
      "outputs": [
        {
          "internalType": "bytes32",
          "name": "",
          "type": "bytes32"
        }
      ],
      "stateMutability": "view",
      "type": "function"
    },
    {
      "inputs": [
        {
          "internalType": "bytes32",
          "name": "role",
          "type": "bytes32"
        },
        {
          "internalType": "address",
          "name": "account",
          "type": "address"
        }
      ],
      "name": "grantRole",
      "outputs": [],
      "stateMutability": "nonpayable",
      "type": "function"
    },
    {
      "inputs": [
        {
          "internalType": "bytes32",
          "name": "role",
          "type": "bytes32"
        },
        {
          "internalType": "address",
          "name": "account",
          "type": "address"
        }
      ],
      "name": "hasRole",
      "outputs": [
        {
          "internalType": "bool",
          "name": "",
          "type": "bool"
        }
      ],
      "stateMutability": "view",
      "type": "function"
    },
    {
      "inputs": [
        {
          "internalType": "address",
          "name": "owner",
          "type": "address"
        },
        {
          "internalType": "address",
          "name": "operator",
          "type": "address"
        }
      ],
      "name": "isApprovedForAll",
      "outputs": [
        {
          "internalType": "bool",
          "name": "",
          "type": "bool"
        }
      ],
      "stateMutability": "view",
      "type": "function"
    },
    {
      "inputs": [
        {
          "internalType": "address",
          "name": "learner",
          "type": "address"
        },
        {
          "internalType": "string",
          "name": "ipfsCid",
          "type": "string"
        },
        {
          "internalType": "string",
          "name": "learnerName",
          "type": "string"
        },
        {
          "internalType": "string",
          "name": "skillName",
          "type": "string"
        },
        {
          "internalType": "string",
          "name": "issuingOrg",
          "type": "string"
        }
      ],
      "name": "issueCertificate",
      "outputs": [
        {
          "internalType": "uint256",
          "name": "",
          "type": "uint256"
        }
      ],
      "stateMutability": "nonpayable",
      "type": "function"
    },
    {
      "inputs": [],
      "name": "name",
      "outputs": [
        {
          "internalType": "string",
          "name": "",
          "type": "string"
        }
      ],
      "stateMutability": "view",
      "type": "function"
    },
    {
      "inputs": [
        {
          "internalType": "uint256",
          "name": "tokenId",
          "type": "uint256"
        }
      ],
      "name": "ownerOf",
      "outputs": [
        {
          "internalType": "address",
          "name": "",
          "type": "address"
        }
      ],
      "stateMutability": "view",
      "type": "function"
    },
    {
      "inputs": [
        {
          "internalType": "address",
          "name": "issuer",
          "type": "address"
        }
      ],
      "name": "removeIssuer",
      "outputs": [],
      "stateMutability": "nonpayable",
      "type": "function"
    },
    {
      "inputs": [
        {
          "internalType": "bytes32",
          "name": "role",
          "type": "bytes32"
        },
        {
          "internalType": "address",
          "name": "callerConfirmation",
          "type": "address"
        }
      ],
      "name": "renounceRole",
      "outputs": [],
      "stateMutability": "nonpayable",
      "type": "function"
    },
    {
      "inputs": [
        {
          "internalType": "uint256",
          "name": "tokenId",
          "type": "uint256"
        }
      ],
      "name": "revokeCertificate",
      "outputs": [],
      "stateMutability": "nonpayable",
      "type": "function"
    },
    {
      "inputs": [
        {
          "internalType": "bytes32",
          "name": "role",
          "type": "bytes32"
        },
        {
          "internalType": "address",
          "name": "account",
          "type": "address"
        }
      ],
      "name": "revokeRole",
      "outputs": [],
      "stateMutability": "nonpayable",
      "type": "function"
    },
    {
      "inputs": [
        {
          "internalType": "address",
          "name": "from",
          "type": "address"
        },
        {
          "internalType": "address",
          "name": "to",
          "type": "address"
        },
        {
          "internalType": "uint256",
          "name": "tokenId",
          "type": "uint256"
        }
      ],
      "name": "safeTransferFrom",
      "outputs": [],
      "stateMutability": "nonpayable",
      "type": "function"
    },
    {
      "inputs": [
        {
          "internalType": "address",
          "name": "from",
          "type": "address"
        },
        {
          "internalType": "address",
          "name": "to",
          "type": "address"
        },
        {
          "internalType": "uint256",
          "name": "tokenId",
          "type": "uint256"
        },
        {
          "internalType": "bytes",
          "name": "data",
          "type": "bytes"
        }
      ],
      "name": "safeTransferFrom",
      "outputs": [],
      "stateMutability": "nonpayable",
      "type": "function"
    },
    {
      "inputs": [
        {
          "internalType": "address",
          "name": "operator",
          "type": "address"
        },
        {
          "internalType": "bool",
          "name": "approved",
          "type": "bool"
        }
      ],
      "name": "setApprovalForAll",
      "outputs": [],
      "stateMutability": "nonpayable",
      "type": "function"
    },
    {
      "inputs": [
        {
          "internalType": "bytes4",
          "name": "interfaceId",
          "type": "bytes4"
        }
      ],
      "name": "supportsInterface",
      "outputs": [
        {
          "internalType": "bool",
          "name": "",
          "type": "bool"
        }
      ],
      "stateMutability": "view",
      "type": "function"
    },
    {
      "inputs": [],
      "name": "symbol",
      "outputs": [
        {
          "internalType": "string",
          "name": "",
          "type": "string"
        }
      ],
      "stateMutability": "view",
      "type": "function"
    },
    {
      "inputs": [
        {
          "internalType": "uint256",
          "name": "tokenId",
          "type": "uint256"
        }
      ],
      "name": "tokenURI",
      "outputs": [
        {
          "internalType": "string",
          "name": "",
          "type": "string"
        }
      ],
      "stateMutability": "view",
      "type": "function"
    },
    {
      "inputs": [],
      "name": "totalIssued",
      "outputs": [
        {
          "internalType": "uint256",
          "name": "",
          "type": "uint256"
        }
      ],
      "stateMutability": "view",
      "type": "function"
    },
    {
      "inputs": [
        {
          "internalType": "address",
          "name": "from",
          "type": "address"
        },
        {
          "internalType": "address",
          "name": "to",
          "type": "address"
        },
        {
          "internalType": "uint256",
          "name": "tokenId",
          "type": "uint256"
        }
      ],
      "name": "transferFrom",
      "outputs": [],
      "stateMutability": "nonpayable",
      "type": "function"
    },
    {
      "inputs": [
        {
          "internalType": "uint256",
          "name": "tokenId",
          "type": "uint256"
        }
      ],
      "name": "verifyCertificate",
      "outputs": [
        {
          "internalType": "string",
          "name": "ipfsCid",
          "type": "string"
        },
        {
          "internalType": "string",
          "name": "learnerName",
          "type": "string"
        },
        {
          "internalType": "string",
          "name": "skillName",
          "type": "string"
        },
        {
          "internalType": "string",
          "name": "issuingOrg",
          "type": "string"
        },
        {
          "internalType": "uint256",
          "name": "issuedAt",
          "type": "uint256"
        },
        {
          "internalType": "bool",
          "name": "revoked",
          "type": "bool"
        },
        {
          "internalType": "address",
          "name": "owner",
          "type": "address"
        }
      ],
      "stateMutability": "view",
      "type": "function"
    }
  ],
  "bytecode": "0x608060405234801561000f575f5ffd5b506040518060400160405280601081526020016f547275766f436572746966696361746560801b81525060405180604001604052806005815260200164545255564f60d81b815250815f908161006591906101f7565b50600161007282826101f7565b5061008191505f9050336100b2565b506100ac7f114e74f6ea3bd819998f78687bfcb11b140da08e9b7d222fa9c1f1ba1f2aa122336100b2565b506102b1565b5f8281526006602090815260408083206001600160a01b038516845290915281205460ff16610156575f8381526006602090815260408083206001600160a01b03861684529091529020805460ff1916600117905561010e3390565b6001600160a01b0316826001600160a01b0316847f2f8788117e7eff1d82e926ec794901d17c78024a50270940304540a733656f0d60405160405180910390a4506001610159565b505f5b92915050565b634e487b7160e01b5f52604160045260245ffd5b600181811c9082168061018757607f821691505b6020821081036101a557634e487b7160e01b5f52602260045260245ffd5b50919050565b601f8211156101f257805f5260205f20601f840160051c810160208510156101d05750805b601f840160051c820191505b818110156101ef575f81556001016101dc565b50505b505050565b81516001600160401b038111156102105761021061015f565b6102248161021e8454610173565b846101ab565b6020601f821160018114610256575f831561023f5750848201515b5f19600385901b1c1916600184901b1784556101ef565b5f84815260208120601f198516915b828110156102855787850151825560209485019460019092019101610265565b50848210156102a257868401515f19600387901b60f8161c191681555b50505050600190811b01905550565b611f84806102be5f395ff3fe608060405234801561000f575f5ffd5b50600436106101a1575f3560e01c80636352211e116100f3578063a22cb46511610093578063d547741f1161006e578063d547741f146103b2578063e985e9c5146103c5578063e9dd92ee146103d8578063f5be3193146103eb575f5ffd5b8063a22cb46514610379578063b88d4fde1461038c578063c87b56dd1461039f575f5ffd5b80638ae0890e116100ce5780638ae0890e1461033757806391d148541461035757806395d89b411461036a578063a217fddf14610372575f5ffd5b80636352211e146102fd57806370a082311461031057806382aefa2414610323575f5ffd5b806320694db01161015e5780632f2ff15d116101395780632f2ff15d146102b157806336568abe146102c457806342842e0e146102d757806347bc7093146102ea575f5ffd5b806320694db01461025b57806323b872dd1461026e578063248a9ca314610281575f5ffd5b806301ffc9a7146101a557806306f5497e146101cd57806306fdde03146101e2578063081812fc146101f7578063095ea7b3146102225780631692a94214610235575b5f5ffd5b6101b86101b336600461184f565b6103f3565b60405190151581526020015b60405180910390f35b6101e06101db36600461186a565b610403565b005b6101ea61050d565b6040516101c491906118af565b61020a61020536600461186a565b61059c565b6040516001600160a01b0390911681526020016101c4565b6101e06102303660046118dc565b6105c3565b61024861024336600461186a565b6105d2565b6040516101c49796959493929190611904565b6101e0610269366004611979565b6108d9565b6101e061027c366004611992565b6108ff565b6102a361028f36600461186a565b5f9081526006602052604090206001015490565b6040519081526020016101c4565b6101e06102bf3660046119cc565b610988565b6101e06102d23660046119cc565b6109ac565b6101e06102e5366004611992565b6109df565b6101e06102f8366004611979565b6109f9565b61020a61030b36600461186a565b610a1a565b6102a361031e366004611979565b610a24565b6102a35f516020611f2f5f395f51905f5281565b61034a610345366004611979565b610a69565b6040516101c491906119f6565b6101b86103653660046119cc565b610ad2565b6101ea610afc565b6102a35f81565b6101e0610387366004611a38565b610b0b565b6101e061039a366004611a85565b610b16565b6101ea6103ad36600461186a565b610b2e565b6101e06103c03660046119cc565b610b9f565b6101b86103d3366004611b62565b610bc3565b6102a36103e6366004611bcf565b610bf0565b6007546102a3565b5f6103fd82610f11565b92915050565b5f516020611f2f5f395f51905f5261041a81610f35565b5f828152600260205260409020546001600160a01b03166104565760405162461bcd60e51b815260040161044d90611caf565b60405180910390fd5b5f8281526008602052604090206005015460ff16156104b05760405162461bcd60e51b8152602060048201526016602482015275151c9d5d9bce88185b1c9958591e481c995d9bdad95960521b604482015260640161044d565b5f8281526008602052604090819020600501805460ff1916600117905551339083907f1adbf4393900ce3a2332405b86649270c35d1316887336d83190dcbae6a423b9906105019042815260200190565b60405180910390a35050565b60605f805461051b90611cf0565b80601f016020809104026020016040519081016040528092919081815260200182805461054790611cf0565b80156105925780601f1061056957610100808354040283529160200191610592565b820191905f5260205f20905b81548152906001019060200180831161057557829003601f168201915b5050505050905090565b5f6105a682610f42565b505f828152600460205260409020546001600160a01b03166103fd565b6105ce828233610f7a565b5050565b60608080805f8080806105f9895f908152600260205260409020546001600160a01b031690565b6001600160a01b03160361061f5760405162461bcd60e51b815260040161044d90611caf565b5f88815260086020526040808220815160c0810190925280548290829061064590611cf0565b80601f016020809104026020016040519081016040528092919081815260200182805461067190611cf0565b80156106bc5780601f10610693576101008083540402835291602001916106bc565b820191905f5260205f20905b81548152906001019060200180831161069f57829003601f168201915b505050505081526020016001820180546106d590611cf0565b80601f016020809104026020016040519081016040528092919081815260200182805461070190611cf0565b801561074c5780601f106107235761010080835404028352916020019161074c565b820191905f5260205f20905b81548152906001019060200180831161072f57829003601f168201915b5050505050815260200160028201805461076590611cf0565b80601f016020809104026020016040519081016040528092919081815260200182805461079190611cf0565b80156107dc5780601f106107b3576101008083540402835291602001916107dc565b820191905f5260205f20905b8154815290600101906020018083116107bf57829003601f168201915b505050505081526020016003820180546107f590611cf0565b80601f016020809104026020016040519081016040528092919081815260200182805461082190611cf0565b801561086c5780601f106108435761010080835404028352916020019161086c565b820191905f5260205f20905b81548152906001019060200180831161084f57829003601f168201915b5050505050815260200160048201548152602001600582015f9054906101000a900460ff1615151515815250509050805f015181602001518260400151836060015184608001518560a001516108c18f610a1a565b959f949e50929c50909a509850965090945092505050565b5f6108e381610f35565b6108fa5f516020611f2f5f395f51905f5283610f87565b505050565b6001600160a01b03821661092857604051633250574960e11b81525f600482015260240161044d565b5f610934838333611018565b9050836001600160a01b0316816001600160a01b031614610982576040516364283d7b60e01b81526001600160a01b038086166004830152602482018490528216604482015260640161044d565b50505050565b5f828152600660205260409020600101546109a281610f35565b6109828383610f87565b6001600160a01b03811633146109d55760405163334bd91960e11b815260040160405180910390fd5b6108fa82826110a2565b6108fa83838360405180602001604052805f815250610b16565b5f610a0381610f35565b6108fa5f516020611f2f5f395f51905f52836110a2565b5f6103fd82610f42565b5f6001600160a01b038216610a4e576040516322718ad960e21b81525f600482015260240161044d565b506001600160a01b03165f9081526003602052604090205490565b6001600160a01b0381165f90815260096020908152604091829020805483518184028101840190945280845260609392830182828015610ac657602002820191905f5260205f20905b815481526020019060010190808311610ab2575b50505050509050919050565b5f9182526006602090815260408084206001600160a01b0393909316845291905290205460ff1690565b60606001805461051b90611cf0565b6105ce33838361110d565b610b218484846108ff565b61098233858585856111d4565b6060610b3982610f42565b505f610b4f60408051602081019091525f815290565b90505f815111610b6d5760405180602001604052805f815250610b98565b80610b77846112fc565b604051602001610b88929190611d3f565b6040516020818303038152906040525b9392505050565b5f82815260066020526040902060010154610bb981610f35565b61098283836110a2565b6001600160a01b039182165f90815260056020908152604080832093909416825291909152205460ff1690565b5f5f516020611f2f5f395f51905f52610c0881610f35565b6001600160a01b038b16610c5e5760405162461bcd60e51b815260206004820152601e60248201527f547275766f3a20696e76616c6964206c6561726e657220616464726573730000604482015260640161044d565b88610cab5760405162461bcd60e51b815260206004820152601860248201527f547275766f3a2049504653204349442072657175697265640000000000000000604482015260640161044d565b84610cf85760405162461bcd60e51b815260206004820152601a60248201527f547275766f3a20736b696c6c206e616d65207265717569726564000000000000604482015260640161044d565b60078054905f610d0783611d53565b9091555050600754610d198c8261138c565b6040518060c001604052808c8c8080601f0160208091040260200160405190810160405280939291908181526020018383808284375f92019190915250505090825250604080516020601f8d018190048102820181019092528b815291810191908c908c90819084018382808284375f92019190915250505090825250604080516020601f8b0181900481028201810190925289815291810191908a908a90819084018382808284375f92019190915250505090825250604080516020601f8901819004810282018101909252878152918101919088908890819084018382808284375f920182905250938552505042602080850191909152604093840183905285835260089052502081518190610e319082611dbb565b5060208201516001820190610e469082611dbb565b5060408201516002820190610e5b9082611dbb565b5060608201516003820190610e709082611dbb565b506080820151600482015560a0909101516005909101805460ff19169115159190911790556001600160a01b038c165f818152600960209081526040808320805460018101825590845291909220018390555182907f69c2ef69279bd95361b92e81471ac7e6062d893b90c8da20820cfd23255b96aa90610efa908f908f908d908d904290611e9e565b60405180910390a39b9a5050505050505050505050565b5f6001600160e01b03198216637965db0b60e01b14806103fd57506103fd826113a5565b610f3f81336113f4565b50565b5f818152600260205260408120546001600160a01b0316806103fd57604051637e27328960e01b81526004810184905260240161044d565b6108fa838383600161142d565b5f610f928383610ad2565b611011575f8381526006602090815260408083206001600160a01b03861684529091529020805460ff19166001179055610fc93390565b6001600160a01b0316826001600160a01b0316847f2f8788117e7eff1d82e926ec794901d17c78024a50270940304540a733656f0d60405160405180910390a45060016103fd565b505f6103fd565b5f828152600260205260408120546001600160a01b0316801561108e5760405162461bcd60e51b815260206004820152602860248201527f547275766f3a2063657274696669636174657320617265206e6f6e2d7472616e6044820152677366657261626c6560c01b606482015260840161044d565b611099858585611531565b95945050505050565b5f6110ad8383610ad2565b15611011575f8381526006602090815260408083206001600160a01b0386168085529252808320805460ff1916905551339286917ff6391f5c32d9c69d2a47ea670b442974b53935d1edc7fd64eb21e047a839171b9190a45060016103fd565b6001600160a01b0383166111365760405163a9fbf51f60e01b81525f600482015260240161044d565b6001600160a01b03821661116857604051630b61174360e31b81526001600160a01b038316600482015260240161044d565b6001600160a01b038381165f81815260056020908152604080832094871680845294825291829020805460ff191686151590811790915591519182527f17307eab39ab6107e8899845ad3d59bd9653f200f220920489ca2b5937696c31910160405180910390a3505050565b6001600160a01b0383163b156112f557604051630a85bd0160e11b81526001600160a01b0384169063150b7a0290611216908890889087908790600401611ed7565b6020604051808303815f875af1925050508015611250575060408051601f3d908101601f1916820190925261124d91810190611f13565b60015b6112b7573d80801561127d576040519150601f19603f3d011682016040523d82523d5f602084013e611282565b606091505b5080515f036112af57604051633250574960e11b81526001600160a01b038516600482015260240161044d565b805160208201fd5b6001600160e01b03198116630a85bd0160e11b146112f357604051633250574960e11b81526001600160a01b038516600482015260240161044d565b505b5050505050565b60605f61130883611623565b60010190505f8167ffffffffffffffff81111561132757611327611a71565b6040519080825280601f01601f191660200182016040528015611351576020820181803683370190505b5090508181016020015b5f19016f181899199a1a9b1b9c1cb0b131b232b360811b600a86061a8153600a850494508461135b57509392505050565b6105ce828260405180602001604052805f8152506116fa565b5f6001600160e01b031982166380ac58cd60e01b14806113d557506001600160e01b03198216635b5e139f60e01b145b806103fd57506301ffc9a760e01b6001600160e01b03198316146103fd565b6113fe8282610ad2565b6105ce5760405163e2517d3f60e01b81526001600160a01b03821660048201526024810183905260440161044d565b808061144157506001600160a01b03821615155b15611502575f61145084610f42565b90506001600160a01b0383161580159061147c5750826001600160a01b0316816001600160a01b031614155b801561148f575061148d8184610bc3565b155b156114b85760405163a9fbf51f60e01b81526001600160a01b038416600482015260240161044d565b81156115005783856001600160a01b0316826001600160a01b03167f8c5be1e5ebec7d5bd14f71427d1e84f3dd0314c0f7b2291e5b200ac8c7c3b92560405160405180910390a45b505b50505f90815260046020526040902080546001600160a01b0319166001600160a01b0392909216919091179055565b5f828152600260205260408120546001600160a01b039081169083161561155d5761155d818486611711565b6001600160a01b03811615611597576115785f855f5f61142d565b6001600160a01b0381165f90815260036020526040902080545f190190555b6001600160a01b038516156115c5576001600160a01b0385165f908152600360205260409020805460010190555b5f8481526002602052604080822080546001600160a01b0319166001600160a01b0389811691821790925591518793918516917fddf252ad1be2c89b69c2b068fc378daa952ba7f163c4a11628f55a4df523b3ef91a4949350505050565b5f8072184f03e93ff9f4daa797ed6e38ed64bf6a1f0160401b83106116615772184f03e93ff9f4daa797ed6e38ed64bf6a1f0160401b830492506040015b6d04ee2d6d415b85acef8100000000831061168d576d04ee2d6d415b85acef8100000000830492506020015b662386f26fc1000083106116ab57662386f26fc10000830492506010015b6305f5e10083106116c3576305f5e100830492506008015b61271083106116d757612710830492506004015b606483106116e9576064830492506002015b600a83106103fd5760010192915050565b6117048383611775565b6108fa335f8585856111d4565b61171c8383836117d6565b6108fa576001600160a01b03831661174a57604051637e27328960e01b81526004810182905260240161044d565b60405163177e802f60e01b81526001600160a01b03831660048201526024810182905260440161044d565b6001600160a01b03821661179e57604051633250574960e11b81525f600482015260240161044d565b5f6117aa83835f611018565b90506001600160a01b038116156108fa576040516339e3563760e11b81525f600482015260240161044d565b5f6001600160a01b038316158015906118325750826001600160a01b0316846001600160a01b0316148061180f575061180f8484610bc3565b8061183257505f828152600460205260409020546001600160a01b038481169116145b949350505050565b6001600160e01b031981168114610f3f575f5ffd5b5f6020828403121561185f575f5ffd5b8135610b988161183a565b5f6020828403121561187a575f5ffd5b5035919050565b5f81518084528060208401602086015e5f602082860101526020601f19601f83011685010191505092915050565b602081525f610b986020830184611881565b80356001600160a01b03811681146118d7575f5ffd5b919050565b5f5f604083850312156118ed575f5ffd5b6118f6836118c1565b946020939093013593505050565b60e081525f61191660e083018a611881565b8281036020840152611928818a611881565b9050828103604084015261193c8189611881565b905082810360608401526119508188611881565b6080840196909652505091151560a08301526001600160a01b031660c090910152949350505050565b5f60208284031215611989575f5ffd5b610b98826118c1565b5f5f5f606084860312156119a4575f5ffd5b6119ad846118c1565b92506119bb602085016118c1565b929592945050506040919091013590565b5f5f604083850312156119dd575f5ffd5b823591506119ed602084016118c1565b90509250929050565b602080825282518282018190525f918401906040840190835b81811015611a2d578351835260209384019390920191600101611a0f565b509095945050505050565b5f5f60408385031215611a49575f5ffd5b611a52836118c1565b915060208301358015158114611a66575f5ffd5b809150509250929050565b634e487b7160e01b5f52604160045260245ffd5b5f5f5f5f60808587031215611a98575f5ffd5b611aa1856118c1565b9350611aaf602086016118c1565b925060408501359150606085013567ffffffffffffffff811115611ad1575f5ffd5b8501601f81018713611ae1575f5ffd5b803567ffffffffffffffff811115611afb57611afb611a71565b604051601f8201601f19908116603f0116810167ffffffffffffffff81118282101715611b2a57611b2a611a71565b604052818152828201602001891015611b41575f5ffd5b816020840160208301375f6020838301015280935050505092959194509250565b5f5f60408385031215611b73575f5ffd5b611b7c836118c1565b91506119ed602084016118c1565b5f5f83601f840112611b9a575f5ffd5b50813567ffffffffffffffff811115611bb1575f5ffd5b602083019150836020828501011115611bc8575f5ffd5b9250929050565b5f5f5f5f5f5f5f5f5f60a08a8c031215611be7575f5ffd5b611bf08a6118c1565b985060208a013567ffffffffffffffff811115611c0b575f5ffd5b611c178c828d01611b8a565b90995097505060408a013567ffffffffffffffff811115611c36575f5ffd5b611c428c828d01611b8a565b90975095505060608a013567ffffffffffffffff811115611c61575f5ffd5b611c6d8c828d01611b8a565b90955093505060808a013567ffffffffffffffff811115611c8c575f5ffd5b611c988c828d01611b8a565b915080935050809150509295985092959850929598565b60208082526021908201527f547275766f3a20636572746966696361746520646f6573206e6f7420657869736040820152601d60fa1b606082015260800190565b600181811c90821680611d0457607f821691505b602082108103611d2257634e487b7160e01b5f52602260045260245ffd5b50919050565b5f81518060208401855e5f93019283525090919050565b5f611832611d4d8386611d28565b84611d28565b5f60018201611d7057634e487b7160e01b5f52601160045260245ffd5b5060010190565b601f8211156108fa57805f5260205f20601f840160051c81016020851015611d9c5750805b601f840160051c820191505b818110156112f5575f8155600101611da8565b815167ffffffffffffffff811115611dd557611dd5611a71565b611de981611de38454611cf0565b84611d77565b6020601f821160018114611e1b575f8315611e045750848201515b5f19600385901b1c1916600184901b1784556112f5565b5f84815260208120601f198516915b82811015611e4a5787850151825560209485019460019092019101611e2a565b5084821015611e6757868401515f19600387901b60f8161c191681555b50505050600190811b01905550565b81835281816020850137505f828201602090810191909152601f909101601f19169091010190565b606081525f611eb1606083018789611e76565b8281036020840152611ec4818688611e76565b9150508260408301529695505050505050565b6001600160a01b03858116825284166020820152604081018390526080606082018190525f90611f0990830184611881565b9695505050505050565b5f60208284031215611f23575f5ffd5b8151610b988161183a56fe114e74f6ea3bd819998f78687bfcb11b140da08e9b7d222fa9c1f1ba1f2aa122a2646970667358221220f9ec7c5e4273795aff7d99d5e31a17daa55ace326276e2d93afb9b29356c445364736f6c634300081c0033",
  "linkReferences": {},
  "deployedLinkReferences": {},
  "immutableReferences": {},
  "inputSourceName": "project/contracts/TruvoCertificate.sol",
  "buildInfoId": "solc-0_8_28-4ecea440419ce2ba0481f06d39a0c1ed80129f5f"
}